:100000000C9451070C9482070C9482070C9482077D
:100010000C9482070C9482070C9482070C9482073C
:100020000C9482070C9482070C9482070C9482072C
:100030000C9482070C9482070C9482070C9482071C
:100040000C9482070C9482070C9482070C9482070C
:100050000C9482070C9482070C9482070C940F086E
:100060000C9482070C94411E0C94691D0C94820719
:100070000C9482070C9482070C9482070C948207DC
:100080000C9482070C9482070C9482070C948207CC
:100090000C940E1E0C942A1D0C9482070C9482075B
:1000A0000C9482070C9482070C9482070C948207AC
:1000B0000C9482070C9482070C9482070C9482079C
:1000C0000C9482070C9482070C9482070C94DB1D1D
:1000D0000C94EB1C0C9482070C94A81D0C94AC1C83
:1000E0000C948207C11EC41EB71EBB1EFB1EC81E79
:1000F000CC1ED21ED61EDA1EE01EE41EE81EFB1E1B
:10010000EE1EF21EF61E0C9476130C947A080C94D4
:1001100067190C947D390C94371A0C9459080C9477
:10012000E41E0C94F61E0C947F190C9400090C9498
:10013000FB1E0C9456190C9484070C94DA1E0C9434
:10014000BB1E0C9456250C9490080C94720F0C94C2
:10015000680F0C94240F0C9445140C94E01E0C941E
:10016000EE1E0C94350F0C94841A0C9486190C9482
:1001700057190C94EA1A0C94791A0C94C11E0C9419
:10018000C01A0C94E20A0C948C170C94D61E0C9492
:10019000371B0C94E81E0C94C41E0C94F21E0C9495
:1001A00015180C94B71E0C9479170C94CC1E0C9453
:1001B000D21E0C9473190C94C81E0C94B6170C9490
:1001C000A41A11007F96290001007F9628003A01A9
:1001D00055C0021010C10141C50400228040360103
:1001E00068B00100B102B011B40102B60302023BD3
:1001F000B701C63A0155F704A9512C82C0020D0D72
:10020000C1024300C20100C50400480048B4010017
:10021000B60302023BE00F0F211C0B0E0849983871
:10022000091103141000E10F0F2F2B0C0E06477657
:1002300037071104231E00B00100B30402000000C0
:10024000B40100D003074218D103000710D2020105
:1002500002D3020102D4020102C005123B000211C6
:10026000C103101088C50103C60102C80C00323654
:10027000450616377577540C00CC0100F6030101D2
:1002800000CF03008130ED0464031281E803851080
:1002900078CB05392C003402F70120EA020000B0C7
:1002A0000100B102001BB40100C00121C10111C550
:1002B000023F3CC701B5360148F20100260101E0CA
:1002C0000F0F26240B0E0954A8460C17090F070020
:1002D000E10F00191B0410072A47390306063038BE
:1002E0000F360100B80101C0010EB00100C10410B9
:1002F000100202C006003500000102C50104D2024E
:100300000104CA0100EA0180B903FF83577F967F89
:1003100096B60125C0065050013C1E08B4070240A5
:10032000002A2A0D787F01F20B1616030808080828
:1003300010041616FD03110235B2050C0C00333300
:10034000B70135BB012BC00104C20201FFC301117B
:10035000C40120C6010FD002A4A1E00ED000050EFA
:10036000150D3743470915121619E10ED000050D7A
:100370000C062D44400E1C1816193A01557F0AB080
:100380000103E2013FC00122E20100B00100C0010F
:100390000AB00100000000000000000000000000A2
:1003A00000000000FFFF0F000004006208000808C2
:1003B0000003000C01030B5A020306090303171084
:1003C0000403002305030017060309630703090C50
:1003D00008030C100903322210001600110001015D
:1003E0001200000013000100000130030101370278
:1003F0000301000D800200610201B0C1FFFF320065
:10040000010000010200000103003010090001009A
:100410000C000000900000800F000000100200009F
:100420001102EF001202000013028F01000500000C
:100430000105000002055F00010401000404000042
:10044000FFFF320007000001FFFF32000002000042
:100450000102000000000000000000000000000099
:1004600000000100A4000100FFFF0A006000002757
:100470000800080830001402310015373200040665
:100480003300160E340011223500001536000785A2
:1004900037000714380003143900200090001500BD
:1004A0001000100411003702290046002A004600FF
:1004B000070000001200890113000011FFFF9600E1
:1004C0001200B90101000001020000020300301017
:1004D000090001000A0000000D0000000E003000BD
:1004E000610001006A00000080000000810000003F
:1004F00082005F009200000193000107FFFF50009F
:1005000007000001E500F078010000010200000290
:10051000030030100400000005000000080007027E
:10052000090000000A0000000C0000000D0000009F
:100530000F00000010000000110007001200000072
:100540001300000007000100FFFFC8001000901614
:1005500011002702FFFF320012000D00FFFF3200E2
:100560001300001229000A002B000D00FFFF3200CB
:1005700020000000210000003000000031000404D1
:100580003200030035000504360008083700070470
:1005900038000303390007073C0004053D00080844
:1005A00060000027610001006A0000008000000078
:1005B0008100000082000000830000008400000031
:1005C0008500000090001000920000000700330139
:1005D000E5000080000001000100000102000007AA
:1005E00003003010040000000800020209000000AF
:1005F0000A0000000C0000000D0000000F000000C9
:10060000100000001100070012000000130000009D
:10061000FFFF32001000B01711000700FFFF0A00B3
:1006200012003A01FFFF0A001300001A29000C0013
:10063000FFFF0A0030000000310005053200040011
:1006400035000600360007073700050138000200B4
:10065000390007073C0004073D000708600000A7B9
:10066000610001006A00000021000000200000007D
:100670008000000081000000820000008300000074
:10068000840000008500000090001000920000002F
:1006900093000300950010019700000098000000EF
:1006A00007007301FFFF3200FF000100F3000800A4
:1006B00000000100010000010200000703003010EB
:1006C00008000203090000001000000011000700EC
:1006D0001200000013000000FFFF32001000B014F1
:1006E000FFFF0A0011000700FFFF0A0012008E0042
:1006F0001300000C29001500FFFF0A003000000065
:100700003100070132000000350003023600020408
:100710003700000038000702390000003C000302E7
:100720003D000304600000A7610001009000290063
:1007300007003301FFFF3200150030009A0010005F
:10074000110020001000283412000200130038109D
:10075000FFFF280012001200FFFF280010002034C5
:1007600013004530FFFF4600300000003100020456
:100770003200070333000403340004003500010491
:100780003600070737000503380010063900100649
:1007900001000001020000030300301008000808F7
:1007A0000A000800600000276100010090003E017F
:1007B0009200000193000001A0000030A30010008F
:1007C0000700010007002100070023000700330095
:1007D0000700330111001A001200213113006C00D0
:1007E0001400494210000008FFFF0A0011001A011E
:1007F000FFFF0A0011001A03FFFF0A0011001A0789
:10080000FFFF0A0011001A0FFFFF0A0011003A0F44
:10081000FFFF1E000100280102000001030030104C
:1008200007001210080003030B0000110C00000069
:100830000F000118150020005000010151000306AF
:100840005200080453000000540005065500060439
:10085000560003035700030358001000590000100E
:1008600007001200FFFF2800070013000700170011
:1008700000002100240027002A002D003000330052
:1008800001010000040107010A0100002200250007
:1008900028002B002E003100340002010000050169
:1008A00008010B01000020002300260029002C0075
:1008B0002F003200000100000301060109010505B7
:1008C0000505070508080808020202020A0A0808C6
:1008D00004040404010101010101010103030303F4
:1008E00003030303040707070C0C0C0C0C0C0C0C83
:1008F0000202020206060606060606060B0B0B0B94
:100900000B0B0B0B010210202008081020401020B8
:1009100040800201020108040201010204081020C3
:1009200040808040201008040201800402018040C1
:10093000201008040201080402010102040810202A
:10094000408001020408102040800000090A0208CB
:100950000B0C0D070603040100000000000000005E
:100960000000000000000000000000000000000087
:1009700000000000000011100F0000000000000047
:100980000000000000000000000000000000000067
:1009900000000000003E5B4F5B3E3E6B4F6B3E1C19
:1009A0003E7C3E1C183C7E3C181C577D571C1C5E30
:1009B0007F5E1C00183C1800FFE7C3E7FF00182407
:1009C0001800FFE7DBE7FF30483A060E26297929B1
:1009D00026407F050507407F05253F5A3CE73C5AE6
:1009E0007F3E1C1C08081C1C3E7F14227F22145FC3
:1009F0005F005F5F06097F017F006689956A60601E
:100A000060606094A2FFA29408047E040810207E17
:100A1000201008082A1C08081C2A08081E1010109C
:100A2000100C1E0C1E0C30383E3830060E3E0E06E2
:100A3000000000000000005F000000070007001435
:100A40007F147F14242A7F2A1223130864623649F4
:100A50005620500008070300001C224100004122DC
:100A60001C002A1C7F1C2A08083E080800807030E1
:100A70000008080808080000606000201008040250
:100A80003E5149453E00427F400072494949462156
:100A900041494D331814127F1027454545393C4ACA
:100AA00049493141211109073649494936464949E1
:100AB000291E000014000000403400000008142229
:100AC0004114141414140041221408020159090697
:100AD0003E415D594E7C1211127C7F494949363E98
:100AE000414141227F4141413E7F494949417F097E
:100AF0000909013E414151737F0808087F00417F89
:100B000041002040413F017F081422417F40404086
:100B1000407F021C027F7F0408107F3E4141413E1E
:100B20007F090909063E4151215E7F0919294626A0
:100B30004949493203017F01033F4040403F1F20A4
:100B400040201F3F4038403F63140814630304787B
:100B500004036159494D43007F414141020408109B
:100B600020004141417F04020102044040404040D6
:100B7000000307080020545478407F284444383844
:100B800044444428384444287F38545454180008B6
:100B90007E090218A4A49C787F0804047800447D90
:100BA00040002040403D007F1028440000417F402D
:100BB000007C047804787C08040478384444443881
:100BC000FC1824241818242418FC7C080404084861
:100BD0005454542404043F44243C4040207C1C20B2
:100BE00040201C3C4030403C44281028444C90900D
:100BF000907C4464544C4400083641000000770067
:100C000000004136080002010204023C2623263C73
:100C10001EA1A161123A4040207A385454555921FE
:100C200055557941225454784221555478402054E6
:100C30005579400C1E527212395555555939545434
:100C4000545939555454580000457C410002457DA3
:100C5000420001457C407D1211127DF0282528F0CC
:100C60007C545545002054547C547C0A097F4932F9
:100C7000494949323A4444443A324A4848303A4170
:100C800041217A3A42402078009DA0A07D3D424219
:100C9000423D3D4040403D3C24FF2424487E4943A2
:100CA000662B2FFC2F2BFF0929F620C0887E090315
:100CB00020545479410000447D413048484A32383C
:100CC0004040227A007A0A0A727D0D19317D262968
:100CD000292F28262929292630484D402038080860
:100CE000080808080808382F10C8ACBA2F10283494
:100CF000FA00007B000008142A142222142A140887
:100D00005500550055AA55AA55AAFF55FF55FF0095
:100D10000000FF00101010FF00141414FF0010104A
:100D2000FF00FF1010F010F0141414FC001414F75E
:100D300000FF0000FF00FF1414F404FC141417104B
:100D40001F10101F101F1414141F00101010F0009B
:100D50000000001F101010101F10101010F01000D5
:100D60000000FF101010101010101010FF100000E5
:100D700000FF140000FF00FF00001F10170000FC20
:100D800004F414141710171414F404F40000FF00F2
:100D9000F714141414141414F700F714141417147B
:100DA00010101F101F141414F4141010F010F00081
:100DB000001F101F0000001F14000000FC140000A2
:100DC000F010F01010FF10FF141414FF1410101086
:100DD0001F00000000F010FFFFFFFFFFF0F0F0F039
:100DE000F0FFFFFF0000000000FFFF0F0F0F0F0FCD
:100DF0003844443844FC4A4A4A347E020206060219
:100E00007E027E0263554941633844443C04407E7F
:100E1000201E2006027E020299A5E7A5991C2A49F8
:100E20002A1C4C7201724C304A4D4D303048784883
:100E300030BC625A463D3E494949007E0101017E6F
:100E40002A2A2A2A2A44445F444440514A444040C2
:100E5000444A51400000FF0103E080FF0000080801
:100E60006B6B083612362436060F090F0600001881
:100E7000180000001010003040FF0101001F0101A8
:100E80001E00191D1712003C3C3C3C0000000000F5
:100E90007C3C3E5E2B3D3F2F5B5D3B2C2A225C0061
:100EA0007D3911241FBECFEFD1E2DEBFCDBF00E000
:100EB0000CBF13E0A0E0B2E0E2ECF9E700E00BBF0A
:100EC00002C007900D92AC34B107D9F72BE1ACE426
:100ED000B3E001C01D92AE38B207E1F717E0C1E5FB
:100EE000D7E000E006C021970109802FFE010E9493
:100EF000B43CC035D10780E00807A9F70E942D2E29
:100F00000C948F3A0C940000EF92FF920F931F9372
:100F1000DC011A960D911C911B9718962D913C910E
:100F20001997ED91FC91048CF58DE02D7B0140E04B
:100F300050E060E070E019951F910F91FF90EF90E5
:100F40000895CF92DF92EF92FF920F931F93CF936A
:100F5000DF93EC016B0197FD079623E0959587954C
:100F60002A95E1F7092E000CAA0BBB0B975FA24C48
:100F7000BF4F8093500590935105A0935205B093B5
:100F8000530540914C0550914D0560914E0570916F
:100F90004F0584179507A607B70729F180934C05DD
:100FA00090934D05A0934E05B0934F054091500589
:100FB0005091510560915205709153059CE4E92EC2
:100FC00093E0F92E00E012E020E030E083EE9AE1B9
:100FD0000E945F29811107C061EB72E081EC9AE108
:100FE0000E94472CE3CFCE0168E070E00E94A03C55
:100FF000FC0186E0EE0FFF1F8A95E1F7E45BFC4FF2
:1010000080E4D60101900D928A95E1F7DF91CF91AE
:101010001F910F91FF90EF90DF90CF9008951F9256
:101020000F920FB60F9211242F933F938F939F939C
:10103000AF93BF938091411690914216A0914316B1
:10104000B09144163091401623E0230F2D3720F441
:101050000196A11DB11D05C026E8230F0296A11D12
:10106000B11D209340168093411690934216A09391
:101070004316B09344168091451690914616A09160
:101080004716B09148160196A11DB11D80934516D3
:1010900090934616A0934716B0934816BF91AF9110
:1010A0009F918F913F912F910F900FBE0F901F90A6
:1010B0001895DC015996ED91FC915A973097B9F04B
:1010C00083899489A589B689428553856485758508
:1010D000841B950BA60BB70B811520E89207A10581
:1010E000B10538F08FEF9FE7A0E0B0E0089580E011
:1010F00090E00895CF93DF931F92CDB7DEB7698359
:10110000DC01ED91FC910280F381E02D41E050E0A3
:10111000BE016F5F7F4F19950F90DF91CF910895BA
:10112000CF93DF931F92CDB7DEB7FC01848D958DF1
:10113000292F22952F7030E021703327A9014627EF
:10114000BA0171A360A380FF2DC080914916882346
:10115000E1F0868D978D873453E8950719F0823535
:10116000924531F4672B11F482E007C086E005C098
:10117000672B11F48AE001C088E08983AE014F5FDC
:101180005F4F61E081E090E00AC0672B19F480E2D4
:1011900090E002C081E290E040E050E060E00E9418
:1011A0005D102AC0868D978D833947E79407E1F05B
:1011B00040F4843521E0920779F080329445C1F4FF
:1011C00013C0863253E9950779F0893025EB9207F1
:1011D00059F08532924961F4660F771F660F771FC9
:1011E000636187E090E006C0626081E094E002C045
:1011F00081E690E00E94B4110F90DF91CF910895A5
:10120000AF92BF92CF92DF92EF92FF920F931F9314
:10121000CF93DF93EC0180915116882349F0C701E9
:101220008F719927880F991FE1ECEE22E82AF92A9D
:1012300037FF05C0620F731F319521953109260FC5
:10124000371F77FF02C060E070E0E885F9852E1750
:101250003F070CF4F9015F01A61AB70A17FF05C092
:10126000400F511F119501951109CA01800F911F5F
:1012700057FF02C040E050E00A851B8580179107A8
:101280000CF48C016801C41AD50A015011099F01A0
:1012900021503109CE010E94A7128B988A988AA505
:1012A0009BA520910201277820930201A5982EB1D9
:1012B000277C2EB960910201292F3327A9014370A1
:1012C000552705E0440F551F0A95E1F7462B40933B
:1012D00002016EB1A9014C705527440F551F440FF0
:1012E000551F462B4EB964B3A90140715527440FD1
:1012F000551F462B44BB6EB1A90140725527559529
:10130000479555954795462B4EB940910201207C53
:101310003327A3E035952795AA95E1F7242B209351
:1013200002018998899A209102012778209302016D
:10133000A5982EB1277C2EB9409102019C01237003
:101340003327B5E0220F331FBA95E1F7242B209302
:1013500002014EB19C012C703327220F331F220F44
:10136000331F242B2EB944B39C0120713327220F45
:10137000331F242B24BB4EB19C012072332735959B
:10138000279535952795242B2EB920910201807C35
:10139000992763E0959587956A95E1F7822B80936D
:1013A00002018998899A8A9AAC14BD042CF49A2D6A
:1013B0008B2D5601C92ED82E8F2D99279C01237075
:1013C00033272295220F207EAC014C705527342FF5
:1013D000330F330FAC0140715527440FBC01769594
:1013E000679576956795562F587063E09695879523
:1013F0006A95E1F78871B70163707727962F929508
:10140000990F907EB7016C707727660F660FF70112
:10141000E071FF277E2F770FD701B695A795B69578
:10142000A795A870F701B3E0F695E795BA95E1F7AF
:101430001E2F18711C141D040CF043C0F501B0914F
:101440000201B778B0930201A598BEB1B77CBEB9CE
:10145000B0910201B22BB0930201BEB1B32BBEB961
:10146000B4B3B42BB4BBBEB1B52BBEB9B0910201BD
:10147000B82BB09302018998899AB0910201B7788C
:10148000B0930201A598BEB1B77CBEB9B09102017C
:10149000B92BB0930201BEB1B62BBEB9B4B3B72B12
:1014A000B4BBBEB1BA2BBEB9B0910201B12BB0939F
:1014B00002018998899A319711F6E1E0CE1AD10894
:1014C000B9CF8B9A8C8D80FF08C08E8D9F8D863210
:1014D000954191F48D8980FF0FC00A851B850150CD
:1014E0001109288539852150310940E050E060E03C
:1014F00070E0CE010E94A712DF91CF911F910F9152
:10150000FF90EF90DF90CF90BF90AF900895F89448
:1015100098E02F9887FF02C02D9A01C02D98880F60
:101520002F9A9150B1F700000000000000002F98A2
:1015300078940895F8942D9A98E080E02F9A00000E
:101540000000880F1E9981602F989150B9F7789408
:101550000895CF93DF93EC018D81882379F18C81FD
:1015600087FF28C06E857F858889998941E00E9420
:10157000C62A882319F1EA8980E2E89FF001112444
:10158000E95AF94E3097D1F08D81823040F48B8941
:101590009C89AD89BE89848F958FA68FB78F8F89DF
:1015A000988DA98DBA8D938F828FB58BA48B8C81EA
:1015B0008F778C83DF91CF910C948B2A80E0DF9121
:1015C000CF910895FC01818D928D009711F00C94BC
:1015D000A90A08958F929F92AF92BF92CF92DF9205
:1015E000EF92FF920F931F93CF93DF93EC018D81C6
:1015F000811102C080E078C00B891C892D893E8949
:101600000417150726073707A8F36A017B01823004
:1016100029F4CA86DB86EC86FD860DC0C114D10490
:10162000E104F10451F41E821F82188619861A867D
:101630001B861C861D8681E057C08A849B84AC84EF
:10164000BD84EB8DFC8D258530E0275F3F4FB501D4
:10165000A4014150510961097109022E04C0769517
:101660006795579547950A94D2F7D701C601019718
:10167000A109B10904C0B695A795979587952A95B4
:10168000D2F784179507A607B70720F089288A287C
:101690008B2871F44F89588D698D7A8D4E835F83C5
:1016A000688779874C015D018E010A5F1F4F16C064
:1016B000841B950BA60BB70BF5CF4E815F81688518
:1016C000798598018B8D9C8D0E94B02B91E0891AB1
:1016D0009108A108B108882309F48CCF81149104E2
:1016E000A104B10451F795CFDF91CF911F910F91D4
:1016F000FF90EF90DF90CF90BF90AF909F908F9032
:1017000008952F923F924F925F926F927F928F92A5
:101710009F92AF92BF92CF92DF92EF92FF920F9380
:101720001F93CF93DF93EC016B014A018D818111EF
:1017300003C08FEF9FEFD7C08C8180FFFACF4B881B
:101740005C886D887E884A855B856C857D85C40153
:10175000A0E0B0E093018201041B150B260B370BB0
:10176000081719072A073B0718F44201841A950A3B
:1017700054011E0126E0220E311CA114B10409F40B
:101780007EC04A855B856C857D852A0181E0582273
:10179000ED818B8D9C8D8A019B01F9E03695279513
:1017A00017950795FA95D1F7E23061F4FC01828D27
:1017B000938DA48DB58DBC01CD01600F711F821F6B
:1017C000931F3FC0FC0174807A947022411451042D
:1017D000C9F4711017C0452B462B472B49F48F894C
:1017E000988DA98DBA8D8E839F83A887B9870AC0EB
:1017F0004E815F816885798591010E94B02B882395
:1018000009F497CFEB8DFC8D8E819F81A885B985DA
:101810000297A109B109058404C0880F991FAA1F66
:10182000BB1F0A94D2F74685578560897189840F5A
:10183000951FA61FB71FBC01CD01670D711D811D2E
:10184000911D20E032E02419350935012A153B05A8
:1018500008F439012C8126FD04C06114F2E07F06F2
:1018600081F400913A0210913B0220913C023091A8
:101870003D026017710782079307B1F402C0C401EB
:1018800032C040E00E94C62A882309F452CFF201F8
:10189000E95AF94ED601CF01860D971D8E179F0785
:1018A00089F021912D93FACF760183019201AB014A
:1018B000BC0180914B1690914C160E945F298823A1
:1018C00009F437CFC60CD71C8A859B85AC85BD85AE
:1018D000860D971DA11DB11D8A879B87AC87BD878B
:1018E000A618B7084ACFDF91CF911F910F91FF90B3
:1018F000EF90DF90CF90BF90AF909F908F907F90B0
:101900006F905F904F903F902F900895CF93DF930B
:10191000EC010E94A90A882311F01D8281E0DF9169
:10192000CF9108953F924F925F926F927F928F92E4
:101930009F92AF92BF92CF92DF92EF92FF920F935E
:101940001F93CF93DF93CDB7DEB72C970FB6F894E4
:10195000DEBF0FBECDBF5C01DC015B968D909C901D
:101960005C971696CD90DD90ED90FC901997C11480
:10197000D104E104F10439F0BFEFCB1ADB0AEB0A22
:10198000FB0A312C07C0F401C080D180E280F380D3
:1019900033243394F40181859285A385B4859C0119
:1019A000AD012F5F3F4F4F4F5F4F29873A874B87DE
:1019B0005C87260137011D821E821F821886F40172
:1019C00081859285A385B4852D813E814F8158857F
:1019D000281739074A075B0708F063C089859A858D
:1019E000AB85BC858C159D05AE05BF0550F482E026
:1019F000C82ED12CE12CF12C92E0492E512C612CD7
:101A0000712C9E012F5F3F4FB701A601C4010E94B8
:101A1000B02B882309F445C089819A81AB81BC81B0
:101A2000892B8A2B8B2B41F0260137019FEF491A16
:101A3000590A690A790A05C0C414D504E604F704F2
:101A400091F02D813E814F8158852F5F3F4F4F4F41
:101A50005F4F2D833E834F8358873FEFC31AD30ACE
:101A6000E30AF30AACCF0FEF1FEF2FEF3FE0B30114
:101A7000A201C4010E940F2B882399F0D50116966C
:101A80004D915D916D917C911997411551056105BD
:101A9000710549F093018201C4010E940F2B81114D
:101AA00002C080E02AC0D50116964D925D926D92DB
:101AB0007C921997332051F0D301C2010196A11DE8
:101AC000B11DF40180839183A283B383F5018789DB
:101AD000908DA18DB28D892B8A2B8B2B69F4D5012A
:101AE00057964D925D926D927C925A9714968C9176
:101AF0001497806814968C9381E02C960FB6F89416
:101B0000DEBF0FBECDBFDF91CF911F910F91FF9030
:101B1000EF90DF90CF90BF90AF909F908F907F908D
:101B20006F905F904F903F9008952F923F924F9209
:101B30005F926F927F928F929F92AF92BF92CF925D
:101B4000DF92EF92FF920F931F93CF93DF9300D01A
:101B50001F92CDB7DEB78C015B011A01DC0115962F
:101B60008C9115978130C9F414968C9181FF15C022
:101B700082FF1DC0F8014389548965897689828571
:101B80009385A485B58584179507A607B70779F0CF
:101B9000C8010E94EA0A81110AC081E090E0D801E0
:101BA00013969C938E93129780E090E036C161016A
:101BB00083C05B968D919C915C97FC0174802FEFA4
:101BC000270D2A013B0139E0769467945794479496
:101BD0003A95D1F7722E74207A01F1E0FF22772036
:101BE00009F476C080E092E08E199F0946018C15B9
:101BF0009D0508F44C01D8015B962D913C915C97B2
:101C000016968D919D910D90BC91A02D0297A109E2
:101C1000B109F901058404C0880F991FAA1FBB1FD1
:101C20000A94D2F74685578560897189840F951F7C
:101C3000A61FB71F9C01AD01270D311D411D511D70
:101C400029013A01811432E0930609F088C080919D
:101C50003A0290913B02A0913C02B0913D0248169D
:101C600059066A067B0659F48FEF9FEFDC018093DB
:101C70003A0290933B02A0933C02B0933D0295013F
:101C8000B301A20180914B1690914C160E94F3294A
:101C9000882309F482CF9EEFB91AC818D908F80131
:101CA00082859385A485B585880D991DA11DB11DDB
:101CB00082879387A487B587D8011A964D915D9145
:101CC0006D917C911D97C114D10409F072CF87C02A
:101CD000E114F10409F086CF16964D915D916D9156
:101CE0007C911997411551056105710559F4579675
:101CF0008D919D910D90BC91A02D0097A105B105EE
:101D000041F521C09E012F5F3F4F0E94B02B8823D9
:101D100009F44BCF89819A81AB81BC81F801238D75
:101D2000348DF9012789203129F048EF5FEF6FEFFB
:101D30007FE004C048EF5FEF60E070E08417950734
:101D4000A607B70730F0C8010E94920C81114ACF54
:101D500024CFF80186839783A087B18743CFE1140E
:101D6000F10429F5D8011A964D915D916D917C9100
:101D70001D9753968D919D910D90BC91A02D481764
:101D800059076A077B0798F00E948B2A882309F479
:101D900004CF40923A0250923B0260923C02709211
:101DA0003D028091561681608093561608C041E02E
:101DB000C301B2010E94C62A882309F4EECED501E0
:101DC000F701E95AF94E9F01280D391D2E173F07DB
:101DD00019F08D918193FACFA80CB91C5ECFF80150
:101DE00083899489A589B68984179507A607B707BB
:101DF00038F4438B548B658B768B84818068848325
:101E0000F801848183FD02C0C10107C0C8010E949E
:101E1000A90A882309F4C1CEF7CF0F900F900F9035
:101E20000F90DF91CF911F910F91FF90EF90DF9076
:101E3000CF90BF90AF909F908F907F906F905F906A
:101E40004F903F902F900895CF93DF931F92CDB77F
:101E5000DEB7698341E050E0BE016F5F7F4F0E94B3
:101E6000950D0F90DF91CF910895CF93DF93EC0103
:101E7000898D9A8D009739F481E090E09B838A8365
:101E800080E090E00BC0FC01138212820E94950D4D
:101E9000E98DFA8D22813381232B71F7DF91CF9168
:101EA0000895CF93DF931F92CDB7DEB741E050E0A6
:101EB000BE016F5F7F4F0E94810B019719F48981EA
:101EC00090E002C08FEF9FEF0F90DF91CF910895C8
:101ED000FC01818D928D009711F00C94510F8FEFC2
:101EE0009FEF08950F931F93CF93DF93FC01818D94
:101EF000928D0097B9F0EF010E94510F8C010F3FB6
:101F00008FEF180791F0898D9A8DFC0142855385DA
:101F10006485758541505109610971090E94EA0A79
:101F2000C80105C080E090E002C08FEF9FEFDF9115
:101F3000CF911F910F910895FC01DB0112968D91B5
:101F40009C911397938382838DE592E091838083A4
:101F500014968C911497848315968C91159785838C
:101F600016964D915D916D917C911997468357839B
:101F7000608771871A964D915D916D917C911D9747
:101F800042875387648775871E964D915D916D9149
:101F90007C91519746875787608B718B52968C91B5
:101FA0005297828B53964D915D916D917C9156978E
:101FB000438B548B658B768B57964D915D916D91CC
:101FC0007C915A97478B508F618F728F5B968D9162
:101FD0009C915C97948F838F08950F931F93CF9359
:101FE000DF93EC018B0110161106B4F4FE0185910C
:101FF00094912496FE013297659174918F3F2FEF53
:10200000920729F480E090E00E94671F02C00E94BE
:10201000B41104501109E7CFDF91CF911F910F91B7
:102020000895DF92EF92FF920F931F93CF93DF9368
:10203000CDB7DEB768970FB6F894DEBF0FBECDBF41
:102040007C018B011016110654F5F701849131962D
:10205000D490F2E0EF0EF11C8F3741F46D2D70E05B
:1020600080E090E00E94671FD12C13C02E2DDE016E
:102070001196F701AD019E2F921B9D1520F49491AE
:102080009D933196F8CFED0CF11C6D2D90E00E94E0
:102090005D10ED2DF0E032960E1B1F0BD3CF68962E
:1020A0000FB6F894DEBF0FBECDBFDF91CF911F9169
:1020B0000F91FF90EF90DF9008958B988A98209170
:1020C0000201277820930201A5982EB1277C2EB912
:1020D00070910201292F3327F901E370FF27A5E052
:1020E000EE0FFF1FAA95E1F7E72BE09302017EB107
:1020F000F901EC70FF27EE0FFF1FEE0FFF1FE72B1C
:10210000EEB974B3F901E071FF27EE0FFF1FE72B63
:10211000E4BB7EB1F901E072FF27F595E795F595EF
:10212000E795E72BEEB970910201207C3327E3E0BD
:1021300035952795EA95E1F7272B20930201899899
:10214000899A20910201277820930201A5982EB147
:10215000277C2EB9709102019C0123703327F5E092
:10216000220F331FFA95E1F7272B209302017EB14E
:102170009C012C703327220F331F220F331F272B74
:102180002EB974B39C0120713327220F331F272BE4
:1021900024BB7EB19C012072332735952795359558
:1021A0002795272B2EB9709102019C01207C3327A3
:1021B000F3E035952795FA95E1F7272B2093020157
:1021C0008998899A8A9AFA01A09149167FEF760F29
:1021D00016160CF0C7C02191309102013778309368
:1021E0000201A5983EB1377C3EB960910201322FC1
:1021F0003370B0E23B9FA0011124462B40930201B3
:102200006EB1322F3C70B4E03B9FA0011124462BED
:102210004EB944B3322F3071330F342B34BB6EB10F
:10222000322F3072432F50E055954795559547957D
:10223000462B4EB930910201207C26952695269595
:10224000232B209302018998899A711102C0672F6C
:10225000BDCFAA23E1F301968A9820910201277845
:1022600020930201A5982EB1277C2EB9609102011E
:10227000292F3327A90143705527B5E0440F551F77
:10228000BA95E1F7462B409302016EB1A9014C705B
:102290005527440F551F440F551F462B4EB964B3A5
:1022A000A90140715527440F551F462B44BB6EB101
:1022B000A901407255275595479555954795462B49
:1022C0004EB940910201207C332753E03595279584
:1022D0005A95E1F7242B209302018998899A20913D
:1022E0000201277820930201A5982EB1277C2EB9F0
:1022F000409102019C012370332765E0220F331FB8
:102300006A95E1F7242B209302014EB19C012C70B9
:102310003327220F331F220F331F242B2EB944B330
:102320009C0120713327220F331F242B24BB4EB175
:102330009C01207233273595279535952795242BB9
:102340002EB9409102019C01207C3327B3E03595E2
:102350002795BA95E1F7242B209302018998899A51
:102360008A9A75CF8B9A08958B988A98E2E0F1E06B
:10237000208127782083A5982EB1277C2EB9A081B3
:10238000292F3327A90143705527B5E0440F551F66
:10239000BA95E1F74A2B4083AEB1A9014C7055279D
:1023A000440F551F440F551F4A2B4EB9A4B3A90122
:1023B00040715527440F551F4A2B44BBAEB1A901AC
:1023C0004072552755954795559547954A2B4EB9D7
:1023D0004081207C332753E0359527955A95E1F7C6
:1023E000242B20838998899A208127782083A59897
:1023F0002EB1277C2EB940819C0123703327A5E0A4
:10240000220F331FAA95E1F7242B20834EB19C01A4
:102410002C703327220F331F220F331F242B2EB98A
:1024200044B39C0120713327220F331F242B24BB7C
:102430004EB19C0120723327359527953595279508
:10244000242B2EB92081807C9927B3E09595879520
:10245000BA95E1F7822B80838998899A8A9A80813C
:1024600087788083A5988EB1877C8EB94081872F2D
:1024700099279C012370332755E0220F331F5A956B
:10248000E1F7242B20834EB19C012C703327220FBF
:10249000331F220F331F242B2EB944B39C0120710C
:1024A0003327220F331F242B24BB4EB19C012072F3
:1024B00033273595279535952795242B2EB92081DF
:1024C000807C9927A3E095958795AA95E1F7822BC3
:1024D00080838998899A808187788083A5988EB136
:1024E000877C8EB92081CB0183709927B5E0880F56
:1024F000991FBA95E1F7822B80832EB1CB018C70A6
:102500009927880F991F880F991F822B8EB924B3A2
:10251000CB0180719927880F991F822B84BB2EB124
:10252000CB01807299279595879595958795822BF4
:102530008EB98081607C7727A3E075956795AA9511
:10254000E1F7682B60838998899A8B9A08958F9216
:102550009F92AF92BF92CF92DF92EF92FF920F9332
:102560001F93CF93DF9300D01F92CDB7DEB77C01CE
:102570005B016A014901FC01868D978D8732F3E981
:102580009F0799F4F7018589823031F4F0E2CF0E8C
:10259000D11C005E1F4F1EC08330E1F420E2A20E6A
:1025A000B11C80E2880E911C15C08632954191F4D1
:1025B000F701858980FF0EC0C801841B950B19F4B3
:1025C0000F5F1F4F07C06217730721F44B01880E7E
:1025D000991E8A01F701848D80FF3BC084A5B982D2
:1025E000AA829B828C82AE014F5F5F4F64E090E0D5
:1025F0000E945D10F70180A9D982CA821B830C83D7
:10260000AE014F5F5F4F64E090E00E945D108091EB
:102610004916882309F459C0F701868D978D8536B0
:10262000910509F052C0B982AA82AE014F5F5F4F97
:1026300062E086A197A10E945D10D982CA82AE0194
:102640004F5F5F4F62E0F70180A591A50E945D108A
:102650003CC0B501F70186A197A10E94B411B60153
:10266000F70180A591A50E94B4118A149B0419F466
:102670000C151D0551F1F701848D85FF0EC085896C
:1026800080FF06C0102F0027C02AD12A860105C06E
:10269000982C8824A828B9284501B501F70184A5FC
:1026A00095A50E94B411B601F70180A991A90E94D5
:1026B000B411B401F70186A597A50E94B411B80121
:1026C000F70182A993A90E94B4110F900F900F9067
:1026D0000F90DF91CF911F910F91FF90EF90DF90BE
:1026E000CF90BF90AF909F908F900895EF92FF9200
:1026F0000F931F93CF93DF937C01E90177FDBEC059
:1027000057FDBCC0FC0180859185681779070CF0E6
:10271000B5C082859385481759070CF0AFC08091EA
:102720005116882341F0CE018F719927880F991F88
:10273000C17CC82BD92B8A019B01C7010E94A7121B
:1027400080914916882309F48DC08B988A98F701E7
:1027500082A593A520910201277820930201A598D4
:102760002EB1277C2EB960910201292F3327A901B0
:102770004370552775E0440F551F7A95E1F7462BB6
:10278000409302016EB1A9014C705527440F551FAB
:10279000440F551F462B4EB964B3A901407155270C
:1027A000440F551F462B44BB6EB1A90140725527FB
:1027B0005595479555954795462B4EB94091020141
:1027C000207C3327B3E035952795BA95E1F7242B84
:1027D000209302018998899A2091020127782093F9
:1027E0000201A5982EB1277C2EB9409102019C01CF
:1027F0002370332715E0220F331F1A95E1F7242B9E
:10280000209302014EB19C012C703327220F331FFD
:10281000220F331F242B2EB944B39C012071332780
:10282000220F331F242B24BB4EB19C01207233276F
:102830003595279535952795242B2EB920910201A2
:10284000807C992773E0959587957A95E1F7822B9F
:10285000809302018998899A8A9ACE010E940D1C60
:102860008B9A0CC0BE01F70182A593A5DF91CF9191
:102870001F910F91FF90EF900C94B411DF91CF91C5
:102880001F910F91FF90EF900895DF92EF92FF92CA
:102890000F931F93CF93DF93CDB7DEB72A970FB671
:1028A000F894DEBF0FBECDBF7C01862F8370D701A9
:1028B00055968C935597462F417060FF05C016962C
:1028C0002D913C91179703C0F70124813581D701E1
:1028D00019963C932E931897442329F014962D9122
:1028E0003C91159703C0F70126813781D7011B96CC
:1028F0003C932E931A97823041F0833041F081301F
:1029000011F088E405C088E203C088E901C088EFBF
:102910008A87F701248D358D30FF03C08A85805862
:102920008A8731FF04C09A8580E489278A8733FF2C
:1029300004C09A8588E089278A87D7015E968D91A1
:102940009C915F9720FFD5C0109149168431B8E65D
:102950009B07F9F49A85892F881F8827881F8295FD
:10296000880F880F807C96FD02C020E001C020E225
:1029700098729A871F828260822B88878BE389876F
:10298000AE01495F5F4F63E086EB90E00E945D100F
:1029900089C08336E9E19E0741F08138F4E99F0759
:1029A00021F0813125E1920709F52A8527FF02C030
:1029B00021602A872A8526FF02C022602A87833663
:1029C00039E1930719F48A858F730EC0813844E981
:1029D000940719F48A858F7207C08131954109F0F7
:1029E00061C08A858F7E806C8A875CC0112309F460
:1029F00059C062E070E0F70177A366A326E030E0FB
:102A000031A720A7E2E2F0E0D7019B96FC93EE937A
:102A10009A979D967C936E939C9764E070E09F9646
:102A20007C936E939E97D1963C932E93D09728E0FB
:102A300030E0D3963C932E93D2978536910521F5BD
:102A40008A85982F916084FD02C09A8703C083ED28
:102A500089278A87442351F082E890E0F70197A301
:102A600086A380E890E091A780A732C280E890E03A
:102A7000D70197969C938E93969782E890E09996CB
:102A80009C938E93989724C28235924501F58A854E
:102A9000982F926084FD02C09A8719C084ED89271F
:102AA0008A8715C02AE230E0F70137A326A38BE21C
:102AB00090E091A780A74CE250E053A742A735A72A
:102AC00024A737A726A791AB80AB93AB82AB11119C
:102AD000FFC186E390E0AE01465F5F4F61E00E9478
:102AE0005D108A8590E0D70193969C938E93929780
:102AF000E6C02A858339B7E79B0709F448C050F43C
:102B00008435F1E09F0781F0803234E5930709F0C6
:102B100081C03DC0863243E99407C9F18930A5EBF5
:102B20009A0709F077C033C087E390E0F70195A7D3
:102B300084A786E390E097A786A789E390E091AB0E
:102B400080AB88E390E093AB82AB80E290E097A308
:102B500086A381E290E091A780A782E290E093A70C
:102B600082A7822F022E000C990B8827990F881FAD
:102B70009927982F8827990F26FD03C060E070E001
:102B800002C060E071E08862682B792B82C040E06F
:102B900052E0D70197965C934E93969741E052E0AE
:102BA00099965C934E93989742E052E09B965C9383
:102BB0004E939A9740E152E09D965C934E939C977A
:102BC00041E152E09F965C934E939E9742E152E022
:102BD000D1965C934E93D09743E152E0D3965C93A9
:102BE0004E93D29727FD03C020E030E002C020E0E2
:102BF00030E88632B3E99B0731F08032944519F012
:102C000060E07AE602C060E075E3622B732B80E03F
:102C100094E035C080E290E0D70197969C938E9324
:102C2000969781E290E099969C938E93989782E292
:102C300090E09B969C938E939A9780E590E09D966A
:102C40009C938E939C9781E590E09F969C938E93A6
:102C50009E9782E590E0D1969C938E93D09783E5E2
:102C600090E0D3969C938E93D29727FD03C060E0AB
:102C700070E002C060E070E8776280E690E00E9459
:102C8000B4118A8586FD03C060E070E002C060E098
:102C900071E081E090E00E94B4118A8585FD03C057
:102CA00060E070E002C068E070E083FD7061606326
:102CB000F70173A362A383E090E00E94B411D701EF
:102CC00055968C91559780FF36C05C968D919C915E
:102CD0005D9792FD30C096968D919C9197979896AE
:102CE0002D913C91999797963C932E939697999610
:102CF0009C938E9398979C968D919C919D97D0963E
:102D00002D913C91D1979D963C932E939C97D19673
:102D10009C938E93D0979E968D919C919F97D296DF
:102D20002D913C91D3979F963C932E939E97D3964B
:102D30009C938E93D297F701028513850150110958
:102D4000208531852150310940E050E060E070E09D
:102D5000C7010E94A712D70116966D917C91179713
:102D60005E968D919C915F978732B3E99B0741F402
:102D7000F70125892250223018F400E210E002C049
:102D800000E010E08732F3E99F0729F0222733277C
:102D9000201B310B04C020E230E0201B310BD70197
:102DA0005C964C9140FF45C01982D02E0A837B83EC
:102DB0006C833D832E8310914916111103C083E368
:102DC00090E002C08EE090E0AE014F5F5F4F66E0A2
:102DD0000E945D101982DA82111103C087E390E02E
:102DE00002C084E190E0AE014F5F5F4F62E00E945D
:102DF0005D10112389F01982F701868D978D873434
:102E0000934819F081E090E002C088E190E0AE01C3
:102E10004F5F5F4F61E00AC0D7015C968C9180FFE5
:102E20005AC040E050E060E083E190E00E945D1015
:102E300052C08339B7E79B0779F160F48032F4E53B
:102E40009F0751F1833827E7920781F0843591403D
:102E500089F510C0863243E99407F1F08930A5EB7B
:102E60009A07D1F08532924929F504C0F70160A193
:102E700071A124C0600F711F6150710981E390E05E
:102E80000E94B411B80182E390E00E94B41160E0A6
:102E900070E083E390E019C0D70190966D917C912A
:102EA0009197626081E094E00E94B411B80184E0DF
:102EB00094E00BC0F70160A171A1626081E690E02F
:102EC0000E94B411B8018AE690E00E94B41103C0D8
:102ED00086E190E000CE2A960FB6F894DEBF0FBED2
:102EE000CDBFDF91CF911F910F91FF90EF90DF90B9
:102EF0000895EF92FF920F931F93DC01ED91FC91E7
:102F0000048CF58DE02D780101E010E019951F91FA
:102F10000F91FF90EF900895EF92FF920F931F9300
:102F2000DC01ED91FC91048CF58DE02D7801890197
:102F300021E030E019951F910F91FF90EF900895D7
:102F40000895FC016370658B8481958126813781AA
:102F5000613039F0633029F0918780873387228789
:102F60000895318720879387828708956F927F9293
:102F70008F929F92AF92BF92CF92DF92EF92FF9289
:102F80000F931F93CF93DF93EC014B015A0169011B
:102F90003801E881F9810680F781E02D1995E881F3
:102FA000F9810684F785E02D87019601A501B4011A
:102FB000CE011995A501460D571D41505109E881D3
:102FC000F9810684F785E02D9601B401CE011995AB
:102FD000E881F9810484F585E02D9301A501B40110
:102FE000CE011995C80CD91CB60161507109E88150
:102FF000F9810484F585E02D9301A501CE01199591
:10300000E881F9810288F389E02DCE01DF91CF912B
:103010001F910F91FF90EF90DF90CF90BF90AF90F6
:103020009F908F907F906F9019948F929F92AF9204
:10303000BF92CF92DF92EF92FF920F931F93CF93A5
:10304000DF934C016B015A01E901DC01ED91FC9128
:103050006217730781F40417150724F48B2D5801A8
:10306000042F182F0A191B0998012F5F3F4F008C5E
:10307000F18DE02D12C04017510709F526173707CB
:1030800024F48D2D6901C62FD82F9E012C193D09DE
:103090002F5F3F4F028CF38DE02D8701A501B60114
:1030A000C4011995DF91CF911F910F91FF90EF907F
:1030B000DF90CF90BF90AF909F908F900895068043
:1030C000F781E02D1995D401ED91FC910088F189EB
:1030D000E02D9E01A501B601C4011995D401ED9121
:1030E000FC910288F389E02DC401DF91CF911F91FB
:1030F0000F91FF90EF90DF90CF90BF90AF909F9097
:103100008F901994EF92FF920F931F93DC011A9600
:103110000D911C911B9718962D913C911997ED914B
:10312000FC91048CF58DE02D7B0140E050E060E0E7
:1031300070E019951F910F91FF90EF9008954F92B5
:103140005F926F927F928F929F92AF92BF92CF9237
:10315000DF92EF92FF920F931F93CF93DF936C0157
:103160002B015A0139014801DC01ED91FC910680E7
:10317000F781E02D1995E201640C751CD601ED91E3
:10318000FC91C615D7055CF40484F585E02D870114
:103190009401A501BE01C60119952196EFCF0288C1
:1031A000F389E02DC601DF91CF911F910F91FF9020
:1031B000EF90DF90CF90BF90AF909F908F907F90D7
:1031C0006F905F904F9019948F929F92AF92BF92A1
:1031D000CF92DF92EF92FF920F931F93CF93DF93E3
:1031E000EC015B014A016901E881F9810680F78100
:1031F000E02D199595012C0D3D1D21503109E881D7
:10320000F9810088F189E02D78018401A401B501DC
:10321000CE011995E881F9810288F389E02DCE016C
:10322000DF91CF911F910F91FF90EF90DF90CF90A2
:10323000BF90AF909F908F9019948F929F92AF9272
:10324000BF92CF92DF92EF92FF920F931F93CF9393
:10325000DF93EC015B014A0169017801E881F981A2
:103260000680F781E02D1995C80CD91C8601015004
:103270001109E881F9810088F189E02D9501A40107
:10328000B501CE011995E881F9810288F389E02D15
:10329000CE01DF91CF911F910F91FF90EF90DF90C2
:1032A000CF90BF90AF909F908F9019940895EF9218
:1032B000FF920F931F93DC01ED91FC91048CF58D2F
:1032C000E02D19951F910F91FF90EF9008950F93A6
:1032D0001F93DC01ED91FC91028CF38DE02D19958B
:1032E0001F910F9108950F931F93DC01ED91FC91B5
:1032F000008CF18DE02D19951F910F910895DC013F
:10330000ED91FC910480F581E02D19942F923F926C
:103310004F925F926F927F928F929F92AF92BF92E5
:10332000CF92DF92EF92FF920F931F93CF93DF9391
:1033300000D000D0CDB7DEB72C017E836D836A014B
:103340005901C801FC82EB824801841A950A97FE54
:1033500003C091948194910835012D813E81621AB8
:10336000730A77FE03C0719461947108681479043C
:103370005CF43A2D2B2D5C01832F922F3D812E8101
:10338000DE82CD82C32ED22EAD81BE81AA16BB06AF
:103390005CF43C2D2D2D6C01832F922F3D812E81CD
:1033A000BE82AD82A32EB22E85012D813E81021BED
:1033B000130B1C012C183D0837FE03C031942194D7
:1033C0003108780117FF03C03FEFE31AF30AF594C1
:1033D000E794C816D9062CF08FEF9FEF9A83898364
:1033E00004C0A1E0B0E0BA83A9832D813E81A2167A
:1033F000B30624F1D201ED91FC910084F185E02D1A
:103400002B813C816814790424F44D815E81B601DE
:1034100003C0A6016D817E81C2011995E218F308EF
:10342000F7FE06C029813A81C20ED31EE00EF11EBE
:103430008D819E8101969E838D83D7CF26960FB670
:10344000F894DEBF0FBECDBFDF91CF911F910F91DA
:10345000FF90EF90DF90CF90BF90AF909F908F90B4
:103460007F906F905F904F903F902F9008950F93B3
:103470001F93CF93DF93FC01A685B7858D01005C78
:103480001F4FE8018881998101968F739927AD01BB
:103490004E5B5F4FEA012881398128173907D1F344
:1034A000E80128813981A20FB31F6C93A685B785E7
:1034B000A05CBF4F11969C938E93A689B7892C91DF
:1034C00081E090E0078C02C0880F991F0A94E2F710
:1034D000822B8C9381E081A30488F589E02D808183
:1034E0008064808381E090E0DF91CF911F910F9104
:1034F0000895FC0181A1882329F0A489B5898C91C4
:1035000086FFFBCF11A20895FC01A485B585FD01BE
:10351000E05CFF4F208131813296808191812817B4
:10352000390779F080819181A80FB91F8C91208192
:1035300031812F5F3F4F2F7333273183208390E0FA
:1035400008958FEF9FEF0895DC011C96ED91FC919B
:103550001D97DF01A05CBF4F2D913C9111971296F2
:103560008D919C9111972817390739F08D919C9175
:10357000E80FF91F808190E008958FEF9FEF089585
:10358000FC0124853585F901E05CFF4F8081918144
:10359000329620813181821B930B8F739927089576
:1035A000FB01E05CFF4F20813181DB01AE5BBF4F4F
:1035B0004D915C912F5F3F4F2F7333274217530775
:1035C00041F040815181DB01A40FB51F8C93318301
:1035D00020830895CF92DF92EF92FF920F931F9373
:1035E000CF93DF936C01EB017B01E40EF51E00E04D
:1035F00010E0CE15DF0561F06991D601ED91FC91E7
:103600000190F081E02DC6011995080F191FF1CF27
:10361000C801DF91CF911F910F91FF90EF90DF9044
:10362000CF9008953FB7F894809145169091461633
:10363000A0914716B091481626B5A89B05C02F3F0C
:1036400019F00196A11DB11D3FBFBA2FA92F982FC8
:103650008827820F911DA11DB11DBC01CD0142E043
:10366000660F771F881F991F4A95D1F70895AF926B
:10367000BF92CF92EF92FF920F931F93CF93DF935E
:10368000EC01262F888D998D009709F040C06A3093
:1036900059F41D861C862C898E859F8538E0239FD2
:1036A000800D911D112441C06D3009F4AAC08E898E
:1036B0008823C1F03C898C859D8546E0349F800D30
:1036C000911D112448855985481759075CF41D86BA
:1036D0001C868E859F8548E0349F800D911D1124A6
:1036E0009F878E87EA88FB88088919894E855F85C0
:1036F0006C857D85CC88CE010E94D6262C898C8550
:103700009D8536E0239F800D911D112442C06A30B3
:1037100079F41D861C862C89FC013696E4918E85F1
:103720009F852E9F800D911D11249F878E8769C0D4
:103730006D3009F466C0FC0134963491631708F4C7
:1037400060C03196E491E61708F45BC0FC01329644
:1037500065917491422F50E0431B510937E0349F2B
:103760005001359FB00C1124A60EB71EF5013296FC
:1037700034913196E491332311F0E1110DC0F5013C
:103780003496E4912C898C859D85E29F800D911D56
:1037900011249D878C8735C0F501359644915E894B
:1037A000552311F16C89E32FF0E0E40FF11D47FD83
:1037B000FA956E9FD0016F9FB00D11244C855D85E9
:1037C0004A0F5B1FE885F985E417F5076CF41D8641
:1037D0001C86FC013696E4918E859F856E9F800D38
:1037E000911D11249F878E87EA88FB880889198993
:1037F0004E855F856C857D85CC88CE010E94D6265E
:10380000BECF81E090E0DF91CF911F910F91FF90AB
:10381000EF90CF90BF90AF900895482F440F440F82
:10382000440FE2E0F1E0208127782083A5982EB1B3
:10383000277C2EB9208120835EB19C012227387F0E
:10384000232F3327B9016C707727660F771F660F18
:10385000771F652B6EB954B3B90160717727660F76
:10386000771F652B64BB5EB1B901607277277595D0
:10387000679575956795652B6EB95081207C3327C8
:10388000B3E035952795BA95E1F7252B20838998E4
:10389000899A208127782083A5982EB1277C2EB97C
:1038A000208120835EB1807E977023E09695879576
:1038B0002A95E1F79C012C703327220F331F220F2A
:1038C000331F252B2EB954B39C0120713327220FAF
:1038D000331F252B24BB5EB19C0120723327359505
:1038E000279535952795252B2EB92081807C992702
:1038F000B3E095958795BA95E1F7822B80838998F7
:10390000899A808187788083A5988EB1877C8EB9CB
:10391000808180839EB1842F8C70880F880F892BC3
:103920008EB994B3842F8071880F892B84BB2EB1FC
:10393000942F9072892F90E095958795959587950E
:10394000822B8EB98081407C469546954695482BC2
:1039500040838998899A08951F920F920FB60F920B
:1039600011240BB60F922F933F938F939F93EF9356
:10397000FF932091E1183091E2188091E318909123
:10398000E4182817390731F4809131018F7D809335
:10399000310114C0E091E318F091E418EF55F74EAF
:1039A00020818091E3189091E41801968F739927F4
:1039B0009093E4188093E31820933601FF91EF91E0
:1039C0009F918F913F912F910F900BBE0F900FBE43
:1039D0000F901F9018951F920F920FB60F921124FF
:1039E0000BB60F922F933F938F939F93EF93FF9379
:1039F0002091691930916A1980916B1990916C1915
:103A00002817390731F48091D1008F7D8093D10040
:103A100014C0E0916B19F0916C19E75DF64E2081AE
:103A200080916B1990916C1901968F7399279093DF
:103A30006C1980936B192093D600FF91EF919F91A1
:103A40008F913F912F910F900BBE0F900FBE0F9053
:103A50001F9018951F920F920FB60F9211240BB65C
:103A60000F922F933F938F939F93EF93FF93209108
:103A7000F1193091F2198091F3199091F4192817E6
:103A8000390731F48091C9008F7D8093C90014C03B
:103A9000E091F319F091F419EF54F64E20818091E2
:103AA000F3199091F41901968F7399279093F41953
:103AB0008093F3192093CE00FF91EF919F918F9106
:103AC0003F912F910F900BBE0F900FBE0F901F9044
:103AD00018951F920F920FB60F9211240BB60F92EA
:103AE0002F933F938F939F93EF93FF932091791A96
:103AF00030917A1A80917B1A90917C1A2817390795
:103B000031F48091C1008F7D8093C10014C0E09199
:103B10007B1AF0917C1AE75CF54E208180917B1A2C
:103B200090917C1A01968F73992790937C1A8093B9
:103B30007B1A2093C600FF91EF919F918F913F9147
:103B40002F910F900BBE0F900FBE0F901F901895E6
:103B50001F920F920FB60F9211240BB60F922F9354
:103B60003F934F935F936F937F938F939F93AF9305
:103B7000BF93EF93FF938091300182FD07C0809146
:103B8000360165EE78E10E94D01A02C080913601BC
:103B9000FF91EF91BF91AF919F918F917F916F9125
:103BA0005F914F913F912F910F900BBE0F900FBEE1
:103BB0000F901F9018951F920F920FB60F9211241D
:103BC0000BB60F922F933F934F935F936F937F9317
:103BD0008F939F93AF93BF93EF93FF938091D00008
:103BE00082FD07C08091D6006DE679E10E94D01A6F
:103BF00002C08091D600FF91EF91BF91AF919F914C
:103C00008F917F916F915F914F913F912F910F9085
:103C10000BBE0F900FBE0F901F9018951F920F9222
:103C20000FB60F9211240BB60F922F933F934F9321
:103C30005F936F937F938F939F93AF93BF93EF9314
:103C4000FF938091C80082FD07C08091CE0065EF90
:103C500079E10E94D01A02C08091CE00FF91EF91CD
:103C6000BF91AF919F918F917F916F915F914F9194
:103C70003F912F910F900BBE0F900FBE0F901F9092
:103C800018951F920F920FB60F9211240BB60F9238
:103C90002F933F934F935F936F937F938F939F9354
:103CA000AF93BF93EF93FF938091C00082FD07C055
:103CB0008091C6006DE77AE10E94D01A02C080911F
:103CC000C600FF91EF91BF91AF919F918F917F912E
:103CD0006F915F914F913F912F910F900BBE0F907D
:103CE0000FBE0F901F9018956115710579F0FB01BB
:103CF00001900020E9F73197AF01461B570BDC011B
:103D0000ED91FC910280F381E02D199480E090E028
:103D100008950C94741E863308F0865390917B00AE
:103D2000282F2870977F922B90937B008770806458
:103D300080937C0080917A00806480937A008091E7
:103D40007A0086FDFCCF809178002091790090E088
:103D5000922B089590E0FC013197E131F10508F0D4
:103D60004AC08827EE58FF4F8F4F0C94B43C809187
:103D700080008F7703C0809180008F7D80938000CA
:103D8000089584B58F7702C084B58F7D84BD089572
:103D90008091B0008F7703C08091B0008F7D8093B9
:103DA000B0000895809190008F7707C080919000B7
:103DB0008F7D03C080919000877F8093900008954D
:103DC0008091A0008F7707C08091A0008F7D03C0F5
:103DD0008091A000877F8093A000089580912001AA
:103DE0008F7707C0809120018F7D03C080912001D3
:103DF000877F8093200108951F93CF93DF93282F0F
:103E000030E0F901E65BF64F8491F901EC5FF64F83
:103E1000D491F901E254F74FC491CC23C1F0162F8D
:103E200081110E94AA1EEC2FF0E0EE0FFF1FE65753
:103E3000F74FA591B4919FB7F894111104C08C91DC
:103E4000D095D82302C0EC91DE2BDC939FBFDF918D
:103E5000CF911F910895CF93DF9390E0FC01EC5F29
:103E6000F64F2491FC01E254F74F8491882361F1CD
:103E700090E0880F991FFC01E059F74FC591D4914C
:103E8000FC01E657F74FA591B491611109C09FB7A6
:103E9000F8948881209582238883EC912E230BC08F
:103EA000623061F49FB7F8948881322F3095832374
:103EB0008883EC912E2B2C939FBF06C08FB7F8946C
:103EC000E8812E2B28838FBFDF91CF910895CF9269
:103ED000DF92EF92FF92CF93DF936B017C010E9400
:103EE000121BEB01C114D104E104F10479F00E942A
:103EF000121B6C1B7D0B683E7340A0F381E0C81A57
:103F0000D108E108F108C851DC4FECCFDF91CF9127
:103F1000FF90EF90DF90CF9008952FB7F8946091C5
:103F200041167091421680914316909144162FBF0E
:103F300008952F923F924F925F926F927F928F924D
:103F40009F92AF92BF92CF92DF92EF92FF920F9328
:103F50001F93CF93DF93CDB7DEB7C959D1090FB601
:103F6000F894DEBF0FBECDBF2C014B01CE56DF4F04
:103F700059834883C259D0403901C257DF4F198352
:103F80000883CE58D0402DB73EB7CA56DF4F39838D
:103F90002883C659D040E7961FAE1EAEE79788EE3D
:103FA00093E0A0E0B0E0EB968CAF9DAFAEAFBFAFBB
:103FB000EB978DE492E0E5969FAF8EAFE597C457FF
:103FC000DF4F19821882CC58D040C158DF4F188279
:103FD000CF57D0408E01025E1F4F62E878E1C801E2
:103FE0000E949C0F1C821B828DE592E09A8389833C
:103FF0001E82CE0101965C01302E212E84E0C82E57
:1040000082E0D82E6FE270E0C6010E941B3C009750
:1040100009F443C0F60120812F3221F4FFEFCF1ABB
:10402000DF0AF0CF8C198D3008F08CE0082F10E0FB
:10403000A801B601CE01885A9F4F0E94263CE8E5B0
:10404000F0E0EC0FFD1FE00FF11F1082C5010E9490
:10405000860CF5018581882351F01EAE1DAE8DE5DD
:1040600092E09CAF8BAF21961FAE219725C0AE0189
:10407000485A5F4F632D722DC5010E94492D882338
:1040800061F3C00ED11E832D922D0E94860CC101BA
:104090003A2C2B2CA92EB82EB5CF960124503240A5
:1040A000C057DF4F39832883C059D040632D722D0C
:1040B000CE01CB960E949C0FC057DF4F088119811B
:1040C000C059D0400C5F1D4FF801808181110AC09A
:1040D000BE01655C7F4FCE0101960E949C0F45E2B8
:1040E00053E04AC019A218A28DE592E09F8F8E8FEF
:1040F0001BA221968FAD219781111CC06C961FAE1B
:104100001EAE6C9788EE93E0A0E0B0E0A0968CAF76
:104110009DAFAEAFBFAFA0978DE492E06A969FAF20
:104120008EAF6A97E3961FAE1EAEE397A5961FAEBD
:10413000A5972AC08250A801823048F462E878E14D
:10414000CE014E960E94492D81110EC0D7CFBE01DF
:10415000655C7F4FCE014E960E94492D882371F2F7
:10416000CE01CB960E94860CBE01625E7F4FCE01CF
:1041700001960E949C0FA801BE016F5F7F4FCE0188
:10418000885A9F4F0E94592C6C968EAD9FAD6C97AC
:10419000E7969FAF8EAFE797A0968CAD9DADAEAD85
:1041A000BFADA097EB968CAF9DAFAEAFBFAFEB9717
:1041B000A4968CAD9DADAEADBFADA497EF968CAF80
:1041C0009DAFAEAFBFAFEF97A8E5B0E0AC0FBD1F9E
:1041D0001C96E3E7F0E0EC0FFD1F3C9683E790E0D0
:1041E0008C0F9D1F49962D912193E817F907D9F758
:1041F000E396EEADFFADE397C457DF4FF983E88355
:10420000CC58D040309719F08581811116C067E2F3
:1042100073E081EC9AE10E94891E64E072E081EC17
:104220009AE10E94891E67E281EC9AE10E94371AA6
:1042300081EC9AE10E94332CF2C1C257DF4FC88053
:10424000D980CE58D040CC0CDD1CA12CB12C9701CC
:10425000260D371DCC56DF4F39832883C459D040F3
:104260001201412C512CCE56DF4F88819981C259C1
:10427000D0400197C257DF4FE881F981CE58D04036
:10428000E80FF91FC856DF4FF983E883C859D040BB
:10429000CC56DF4F28813981C459D040621673064D
:1042A00009F4AEC1EDB6FEB68DB79EB78C199D0967
:1042B0000FB6F8949EBF0FBE8DBFEDB7FEB7319617
:1042C000C057DF4FF983E883C059D040A091360230
:1042D000B0913702A50194010E94B13AAB01BC0133
:1042E000420D531D641D751D440F551F661F771F1A
:1042F000C457DF4F08811981CC58D04001151105F2
:1043000071F0C8010E94EA0AA601C057DF4F688118
:104310007981C059D040C8010E94810B02C080E061
:1043200090E0C816D906A9F068E373E081EC9AE141
:104330000E94472C0115110531F0C8010E94860C1E
:10434000C8010E94853B0FB6F894FEBE0FBEEDBEBD
:1043500066C18301C856DF4F28813981C859D040D2
:10436000A301CE56DF4F68817981C259D04080EFDA
:104370009AE10E94A712C057DF4FE881F981C05926
:10438000D040DF0180E090E0C257DF4F28813981C3
:10439000CE58D0402817390751F02D913C911197F4
:1043A0003227232732272D933D930196EDCF80911D
:1043B0001A1B90911B1B8B988A98209102012778D9
:1043C00020930201A5982EB1277C2EB9609102019D
:1043D000292F3327A9014370552775E0440F551F36
:1043E0007A95E1F7462B409302016EB1A9014C701A
:1043F0005527440F551F440F551F462B4EB964B324
:10440000A90140715527440F551F462B44BB6EB17F
:10441000A901407255275595479555954795462BC7
:104420004EB940910201207C332703E03595279552
:104430000A95E1F7242B209302018998899A20910B
:104440000201277820930201A5982EB1277C2EB96E
:10445000409102019C012370332755E0220F331F46
:104460005A95E1F7242B209302014EB19C012C7048
:104470003327220F331F220F331F242B2EB944B3AF
:104480009C0120713327220F331F242B24BB4EB1F4
:104490009C01207233273595279535952795242B38
:1044A0002EB920910201807C9927B3E095958795DC
:1044B000BA95E1F7822B809302018998899A8A9AAA
:1044C000C257DF4F28813981CE58D04012161306CB
:1044D0000CF087C0819191914091020147784093FF
:1044E0000201A5984EB1477C4EB9A0910201492F17
:1044F0005527BA0163707727B5E0660F771FBA9525
:10450000E1F76A2B60930201AEB1BA016C707727B4
:10451000660F771F660F771F6A2B6EB9A4B3BA01B7
:1045200060717727660F771F6A2B64BBAEB1BA0143
:104530006072772775956795759567956A2B6EB943
:1045400060910201407C552713E0559547951A95D7
:10455000E1F7462B409302018998899A4091020124
:10456000477840930201A5984EB1477C4EB96091BF
:104570000201AC014370552705E0440F551F0A9511
:10458000E1F7462B409302016EB1AC014C70552708
:10459000440F551F440F551F462B4EB964B3AC0151
:1045A00040715527440F551F462B44BB6EB1AC01DB
:1045B000407255275595479555954795462B4EB9C9
:1045C00040910201807C992713E0959587951A9573
:1045D000E1F7842B809302018998899A215031094F
:1045E00075CF8B9A0FB6F894FEBE0FBEEDBE3FEFAF
:1045F000631A730A8FEF881A980AA80AB80A48CE75
:10460000C457DF4F08811981CC58D04001151105DE
:1046100031F0C8010E94860CC8010E94853BCA5631
:10462000DF4FE881F981C659D0400FB6F894FEBF3C
:104630000FBEEDBFC756DF4F0FB6F894DEBF0FBEFB
:10464000CDBFDF91CF911F910F91FF90EF90DF9041
:10465000CF90BF90AF909F908F907F906F905F9022
:104660004F903F902F900895EF92FF920F931F93DA
:1046700040914F16509150164450510960914D167B
:1046800070914E1664507109E12C88EFF82E09E004
:1046900010E029E030E080EF9AE10E9400091F91CC
:1046A0000F91FF90EF9008958F929F92AF92BF92DB
:1046B000EF92FF920F931F93CF93DF93CDB7DEB7A7
:1046C000A1970FB6F894DEBF0FBECDBF162F042FF3
:1046D00019A2423008F40AE07E0121E2E20EF11C48
:1046E000802E912CA12CB12C612FA50194010E9448
:1046F000BC3A029F1019112481E0E81AF1081A301F
:1047000014F4105D01C0195CF7011083122F732F90
:10471000CA01232B242B252B39F7B70181EC9AE111
:104720000E94741EA1960FB6F894DEBF0FBECDBFD7
:10473000DF91CF911F910F91FF90EF90BF90AF90BD
:104740009F908F900895CF92DF92EF92FF92CF9338
:10475000DF936C01990FEE08FF08F7FE13C06DE2BE
:1047600081EC9AE10E94371AEC0166277727CB018A
:104770006C197D098E099F094AE00E945423C80FD5
:10478000D91F06C04AE0C701B6010E945423EC01BC
:1047900081EC9AE10E94332C8C0F9D1FDF91CF9109
:1047A000FF90EF90DF90CF900895CF93DF93EFE7E6
:1047B000F9E08491E9E3F9E0D491E3EFF8E0C49102
:1047C000CC2391F081110E94AA1EEC2FF0E0EE0F95
:1047D000FF1FEC55F74FA591B491EC91ED2381E0CB
:1047E00090E021F480E002C080E090E0DF91CF9182
:1047F00008958F929F92AF92BF92CF92DF92EF92E5
:10480000FF92CF93DF93C82F87E598E190934C16E2
:1048100080934B16CC2369F1C53010F080E00CC1B9
:1048200040E060E070E0CB010E94C62A8823B1F32B
:1048300020E1C29FC0011124895B994EFC01E25422
:10484000FE4F20812F7751F73C9640815181628144
:104850007381443651056105710500F33497C080BA
:10486000D180E280F380C114D104E104F10421F489
:10487000D5CFC12CD12C760140E0C701B6010E94F2
:10488000C62A882359F28091621690916316811589
:10489000924021F6A0916716AA2309F4BFCF609138
:1048A0006516709166166115710509F4B7CF2091F0
:1048B0006416222309F4B2CFA093761820936818C7
:1048C00080E030E041E050E0C82FFA01082E02C03D
:1048D000EE0FFF1F0A94E2F72E173F0739F08F5FA4
:1048E000C83091F789E08093711898CF8093711840
:1048F00020916D1630916E162115310519F040E0AA
:1049000050E008C020917B1630917C1640917D16B6
:1049100050917E162093691830936A1840936B1853
:1049200050936C1846015701860E971EA11CB11CAE
:104930008092771890927818A0927918B0927A188D
:10494000E0916816F0916916F0937D18E0937C1859
:10495000B0E00E94B13A860E971EA81EB91E809242
:104960007E1890927F18A0928018B092811885E0EE
:10497000EE0FFF1F8A95E1F7E150FE4FEF2FFF2763
:10498000E6958E0E9F1EA11CB11C8092721890920B
:104990007318A0927418B092751820916A1630910D
:1049A0006B162115310521F0A90160E070E008C007
:1049B00040917716509178166091791670917A1619
:1049C000D701C60188199909AA09BB09840F951F47
:1049D000A61FB71F04C0B695A79597958795CA954A
:1049E000D2F780936D1890936E18A0936F18B093C0
:1049F0007018853F2FE09207A105B10510F48CE0F7
:104A000018C0853F9F4FA105B10510F480E111C08A
:104A10008091831690918416A0918516B091861688
:104A200080937E1890937F18A0938018B09381187C
:104A300080E280937B1881E0DF91CF91FF90EF902F
:104A4000DF90CF90BF90AF909F908F90089581E0BE
:104A500080934A16E1E0F1E08081886780839D9A27
:104A60008DB188638DB9809A819A829A839A849A4B
:104A70008B9A889A899A8C9A62E370E080E090E041
:104A80000E94671F8C9864E670E080E090E00E94CE
:104A9000671F8C9A64E670E080E090E00E94671FD8
:104AA00060E070E080EB90E00C94B41108950F93F7
:104AB0001F93CF93DF93EB010E948D1F8B010E9408
:104AC0009A0A8F3F49F00E948D1F601B710B6C1773
:104AD0007D07A8F380E001C081E0DF91CF911F91B5
:104AE0000F9108950F931F93CF93DF93EC01162F2F
:104AF00080914A16811102C00E9427258B988A98BE
:104B000080910201877880930201A5988EB1877CFD
:104B10008EB9409102018D2F99279C012370332774
:104B200055E0220F331F5A95E1F7242B2093020101
:104B30004EB19C012C703327220F331F220F331FDD
:104B4000242B2EB944B39C0120713327220F331F2D
:104B5000242B24BB4EB19C01207233273595279519
:104B600035952795242B2EB920910201807C992719
:104B7000F3E095958795FA95E1F7822B80930201F2
:104B80008998899A80910201877880930201A5987B
:104B90008EB1877C8EB920910201CE018370992756
:104BA000A5E0880F991FAA95E1F7822B8093020157
:104BB0002EB1CE018C709927880F991F880F991FED
:104BC000822B8EB924B3CE0180719927880F991F4B
:104BD000822B84BB2EB1CE01807299279595879543
:104BE00095958795822B8EB980910201C07CDD2737
:104BF00043E0D595C7954A95E1F7C82BC0930201CC
:104C00008998899A8A9A8091010187788093010115
:104C10009D988DB1877C8DB961E070E080E090E077
:104C20000E94671F889A88988898889860910001E8
:104C30008CB1A2B34CB100910001889A889A8898EF
:104C400088988898E0910001FCB132B32CB1C091F2
:104C50000001889A115017FFE5CF889A8B9A90919E
:104C600001019867909301019D9A9DB198639DB948
:104C7000487050E0440F551F440F551F087198E0CD
:104C8000099F80011124402B512BA072B0E0B595F3
:104C9000A7954A2B5B2B807390E09595879595950A
:104CA0008795482B592B607670E0B5E07595679530
:104CB000BA95E1F7462B572B542F44272870220F23
:104CC000220F8C2F887198E0899FE00111249C2F7E
:104CD000922B3072232F30E035952795292B9F2F6B
:104CE000907396959695922B2E2F20762295269549
:104CF0002770292BCA01822BDF91CF911F910F9131
:104D00000895FF920F931F93CF93DF93EC0160E020
:104D10000E9472258C0161E0CE010E947225F82E5E
:104D200062E0CE010E94722520E030E0302F222781
:104D30001127002740E050E05F2D60E070E0042B79
:104D4000152B262B372B492F50E060E070E0CB016C
:104D5000BA01602B712B822B932BDF91CF911F9186
:104D60000F91FF9008950F931F93CF93DF938C01C2
:104D700060E00E947225EC0161E0C8010E9472258A
:104D8000AC01CE01A0E0B0E0DC019927882760E00B
:104D900070E08C019D01042B152B262B372BC901AC
:104DA000B801DF91CF911F910F9108952F923F92FB
:104DB0004F925F926F927F928F929F92AF92BF922B
:104DC000CF92DF92EF92FF920F931F93CF93DF93D7
:104DD000CDB7DEB76B970FB6F894DEBF0FBECDBF71
:104DE0009B8F8A8F5B011A01D22E1F830E8337019E
:104DF000C982DC0158962D913C91599721153105B6
:104E000009F0E6C018968D919C911997681779075B
:104E10000CF0CDC11A968D919C911B97481759079C
:104E20000CF0C5C18C2C912CFB0126E0C29EE00D3C
:104E3000F11D1124FB87EA871E161F060CF0B7C16F
:104E4000A40183E0440F551F8A95E1F75D874C87E5
:104E5000CA01820D931D181619060CF0A8C15796A9
:104E60008C91811104C05FEA5D1508F4D394AA8D7A
:104E7000BB8DED91FC9111970680F781E02DCD015E
:104E80001995B5E0DB9EC0011124F5013596FF8729
:104E9000EE87BB82AA8225019C012A193B09398B26
:104EA000288BA101485F5F4F5B8B4A8BE889F989AA
:104EB000E40DF51DE057F64F5491588761013D828E
:104EC0002C82888580FF13C0AA8DBB8DED91FC914B
:104ED000B981B13031F40084F185E02D2E813F811C
:104EE00016C00284F385E02DEE80FF801AC0EE81AB
:104EF000FF81E615F705F1F0AA8DBB8DED91FC91D0
:104F0000B981B13051F40084F185E02D9301A601FF
:104F1000B2018A8D9B8D19950DC00284F385E02D19
:104F20007301840194014C815D816A817B818A8D4A
:104F30009B8D1995E885E695E887FFEFCF1ADF0A84
:104F40002C813D81280D391D3D832C834A895B8945
:104F5000C416D50609F0B5CF5FEF451A550A8A8108
:104F60009B81880D991D9B838A83AE85BF854A16D8
:104F70005B0609F09BCFEE81FF81E615F70509F48A
:104F8000F4C0EA8DFB8DA081B181F981F13079F413
:104F9000B5016B5F7F4F1C96ED91FC911D978301CE
:104FA00028E030E0A1018A8D9B8D1995DEC06A85CD
:104FB0007B85681979091A96ED91FC911B9773010D
:104FC0000C851D859401A1018A8D9B8D1995CDC0FD
:104FD000F9013496E491DE1AF901329685919491A3
:104FE000B7E0DB9E800D911D1124F90125913491CC
:104FF0003B8B2A8BFC01259134912901FC013296CF
:10500000C490319634913E87329614913196D49063
:105010004981423058F0612E012E000C77088D2D09
:105020000D2C000C990B9987888704C01986188667
:10503000612C712CAA8DBB8DED91FC91119706808E
:10504000F781E02DCD011995B9818B2E912C689CAB
:10505000C001699C900D789C900D1124FC01EA0D13
:10506000FB1DFD87EC871A82712C612CE12F110F3B
:10507000FF0B95012E0F3F1F3B872A87AC0CB11CFD
:10508000A5014E0F5F1F5F8B4E8BC1018D0D911DD2
:10509000D7FC9A95998F888F9E85691608F065C010
:1050A000862D90E048855985480F591F489D9001ED
:1050B000499D300D589D300D1124D101A20FB31F11
:1050C000B98BA88BEC85FD85FD83EC83AA84BB841A
:1050D000DA80FA85DF1A288D398D280F391F3D8B2C
:1050E0002C8B8D2D8A0D4E895F89A416B506C1F1D2
:1050F000877041F4C2010196EA89FB89E40DF51D30
:1051000074902C0177FE21C0AA8DBB8DED91FC918E
:10511000B981B13061F40084F185E02D2E813F81A9
:105120004C895D89B5018A8D9B8D19950EC00284CD
:10513000F385E02DEE80FF80840194014889598930
:105140006C817D818A8D9B8D1995770CEFEFAE1A5E
:10515000BE0A2C813D81280D391D3D832C83C1CF92
:105160003A813C0D3A83639497CFAA8DBB8DED9124
:10517000FC9111970288F389E02DCD016B960FB653
:10518000F894DEBF0FBECDBFDF91CF911F910F917D
:10519000FF90EF90DF90CF90BF90AF909F908F9057
:1051A0007F906F905F904F903F902F9019946B96E7
:1051B0000FB6F894DEBF0FBECDBFDF91CF911F9128
:1051C0000F91FF90EF90DF90CF90BF90AF909F90A6
:1051D0008F907F906F905F904F903F902F900895A9
:1051E00061E0FC0184810C94FC1ECF93DF93EC0101
:1051F0008E81882389F08F8198859C012F5F3F4F96
:1052000038872F838230924018F40E949A0AF3CF95
:10521000CE010E94F0281E82DF91CF9108958F92D7
:105220009F92AF92BF92FF920F931F93CF93DF9302
:10523000EC01F62E49015A010E94F52860E08C81AC
:105240000E94FC1E6CE271E0CE010E9457258F2D5A
:1052500080640E94870A08E110E0D501C401002E95
:1052600004C0B695A795979587950A94D2F70E94A2
:10527000870A08501109083F8FEF180771F7FF20C0
:1052800029F088E0F81204C087E803C085E901C06E
:105290008FEF0E94870A10E00E949A0A8A8787FF90
:1052A00004C01F3F11F01F5FF7CFDF91CF911F9117
:1052B0000F91FF90BF90AF909F908F900895AF9205
:1052C000BF92CF92DF92EF92FF920F931F93CF93F3
:1052D000DF93EC016901C801820F931F8130924076
:1052E00008F070C08E81882371F088819981AA812D
:1052F000BB8184179507A607B70729F48F81988586
:10530000C816D906B0F5488359836A837B838B8599
:10531000833039F089E0440F551F661F771F8A9547
:10532000D1F79A01AB0161E1CE010E940F298823D8
:1053300019F083E08D8346C00E948D1F5B010E949F
:105340009A0A8A878F3F49F40E948D1F6A197B0948
:105350006D327140A0F38FE003C08E3F31F08DE0DD
:105360008D83CE010E94F0282DC018861F8281E017
:105370008E838F8198858C159D0540F40E949A0A32
:105380008F819885019698878F83F3CF6701E00E10
:10539000F11EEC14FD0431F00E949A0AF60181938B
:1053A0006F01F7CF8F819885080F191F18870F831A
:1053B0008985882319F00115124048F0CE010E941A
:1053C000F52805C0CE010E94F02880E001C081E0F0
:1053D000DF91CF911F910F91FF90EF90DF90CF90D1
:1053E000BF90AF900895CF92DF92EF92FF920F930C
:1053F0001F93CF93DF93EC017901411551056105AE
:10540000710511F482E165C08B85833039F0E9E0E4
:10541000440F551F661F771FEA95D1F79A01AB011C
:1054200068E1CE010E940F29882311F084E051C069
:105430008C8597013E5F6901882321F1F70100E027
:1054400010E0819190E081279C0144E035952795FB
:105450004A95E1F782279327102F0027082719275D
:105460009C01322F22273295307F0227132775E0C7
:10547000880F991F7A95E1F708271927CE16DF06BE
:1054800001F702C00FEF1FEF8EEF0E94870AF701AE
:1054900081917F010E94870ACE14DF04C1F7812F1A
:1054A0000E94870A802F0E94870A0E949A0A8A8790
:1054B0008F71853031F081E18D83CE010E94F0281B
:1054C00009C068E572E0CE010E945725811107C02E
:1054D00085E18D83CE010E94F02880E013C020E09A
:1054E00030E0A9016DE0CE010E940F29811104C0B6
:1054F0000E949A0A882311F084E1EBCFCE010E942A
:10550000F02881E0DF91CF911F910F91FF90EF90F4
:10551000DF90CF900895809156168823A9F140918D
:105520003A0250913B0260913C0270913D0227E5A6
:1055300036E180914B1690914C160E94F32981110F
:1055400002C080E008954091521650915316609128
:10555000541670915516411551056105710591F06C
:1055600027E536E180914B1690914C160E94F32965
:10557000882339F310925216109253161092541633
:10558000109255161092561681E008958F929F92B0
:10559000AF92BF92EF92FF920F931F93CF934B0165
:1055A0005C01C42F80913A0290913B02A0913C0291
:1055B000B0913D0288159905AA05BB0501F10E942D
:1055C0008B2A811102C080E020C087E5E82E86E1A9
:1055D000F82E00E012E020E030E0B501A401809157
:1055E0004B1690914C160E945F29882361F380929C
:1055F0003A0290923B02A0923C02B0923D0280910E
:105600005616C82BC093561681E0CF911F910F916B
:10561000FF90EF90BF90AF909F908F9008954F9222
:105620005F926F927F928F929F92AF92BF92CF9232
:10563000DF92EF92FF920F931F93CF93DF93EC01D2
:10564000423051056105710510F480E078C089850C
:105650009A85AB85BC850196A11DB11D8417950760
:10566000A607B70790F3CB88DC88ED88FE888F8982
:10567000803129F4BB27A72F962F852F09C0DB0186
:10568000CA01E7E0B695A79597958795EA95D1F772
:10569000480159012A013B01C80ED91EEA1EFB1E12
:1056A00080913A0290913B02A0913C02B0913D0260
:1056B000C816D906EA06FB0681F48F898031A9F461
:1056C000B301A201552766277727440F551FFA011A
:1056D000E95AF94E9182808219C040E0C701B601B3
:1056E0000E94C62A8111E9CFB0CFB301A2014F7742
:1056F000552766277727440F551F440F551FFA017A
:10570000E95AF94E80829182A282B3828091561624
:105710008160809356168A89823080F08D819E81C7
:10572000AF81B885C80ED91EEA1EFB1EC092521664
:10573000D0925316E0925416F092551681E0DF9104
:10574000CF911F910F91FF90EF90DF90CF90BF907E
:10575000AF909F908F907F906F905F904F90089543
:105760008F929F92AF92BF92CF92DF92EF92FF9271
:105770000F931F93CF93DF93FC0181859285A385BF
:10578000B4850196A11DB11D84179507A607B7071B
:1057900010F480E05BC083889488A588B6888789E8
:1057A000803129F4BB27A72F962F852F09C0DB0155
:1057B000CA01C7E0B695A79597958795CA95D1F781
:1057C000E9016A017B018F01BC01CD01680D791DE2
:1057D0008A1D9B1D80903A0290903B02A0903C0253
:1057E000B0903D02681579058A059B0591F4F80192
:1057F00087898031A1F4DD24EE24FF24C601880FBF
:10580000991FFC01E95AF94E80819181A0E0B0E036
:1058100018C040E00E94C62A8111E9CFBACFE894AF
:10582000C7F8DD24EE24FF24C601880F991F880FD6
:10583000991FFC01E95AF94E80819181A281B381BF
:10584000BF7088839983AA83BB8381E0DF91CF9166
:105850001F910F91FF90EF90DF90CF90BF90AF908E
:105860009F908F9008950F931F93CF93DF93EC0138
:105870006DE00E94371A8C016AE0CE010E94371A4F
:10588000800F911FDF91CF911F910F9108950F937A
:105890001F93CF93DF93EC010E94741E8C01CE0105
:1058A0000E94332C800F911FDF91CF911F910F9198
:1058B0000895EF92FF920F931F93CF93DF93EC0124
:1058C0007B018A011B821A8288EE93E0A0E0B0E09F
:1058D0008C839D83AE83BF838DE492E0998388831C
:1058E0008DE190E00E94ED3A9A8F898F009779F0D0
:1058F0002DE1F701DC0101900D922A95E1F74CE0D2
:1059000050E0B801CE010C960E94263C188EDF9123
:10591000CF911F910F91FF90EF9008954F925F925A
:105920006F927F92AF92BF92CF92DF92EF92FF92EF
:105930000F931F93CF93DF9300D01F92CDB7DEB7A5
:105940008C0149835A836B837C835901C12CD12CF0
:105950007601412C82E0582E612C712C49815A81AC
:105960006B817C819E012F5F3F4FC8010E94B02B4D
:10597000882351F1D301C201F801058404C0880FC6
:10598000991FAA1FBB1F0A94D2F7C80ED91EEA1E80
:10599000FB1E49815A816B817C818789803129F086
:1059A00088EF9FEFAFEFBFE004C088EF9FEFA0E06C
:1059B000B0E0481759076A077B0780F2F501C082FB
:1059C000D182E282F38281E00F900F900F900F90CE
:1059D000DF91CF911F910F91FF90EF90DF90CF90CB
:1059E000BF90AF907F906F905F904F900895CF934E
:1059F000DF93EC0180E2689FF0011124E95AF94E2F
:105A00006A8B80913A0290913B02A0913C02B09146
:105A10003D028E879F87A88BB98B4489558960E0AA
:105A200070E0BA0155274427828D938DA0E0B0E045
:105A3000482B592B6A2B7B2B4F8B588F698F7A8F72
:105A40008385887151F4848D958DA68DB78D8B8B50
:105A50009C8BAD8BBE8B81E00EC0803111F080E05D
:105A600015C09E012D5E3F4F8B8D9C8D0E948E2C0C
:105A70008823A9F384E08D8381E08C831E821F82BA
:105A8000188619861A861B861C861D86DF91CF9183
:105A90000895AF92BF92CF92DF92EF92FF920F9351
:105AA0001F93CF93DF93CDB7DEB72B970FB6F89444
:105AB000DEBF0FBECDBF6C01FE013196CE010C964C
:105AC0007F0120E22193E817F907E1F7DA0120E0EE
:105AD00037E09D91992331F19E3231F43A3009F447
